{
  "contractName": "OTC",
  "abi": [
    {
      "constant": true,
      "inputs": [
        {
          "internalType": "uint256",
          "name": "",
          "type": "uint256"
        }
      ],
      "name": "trades",
      "outputs": [
        {
          "internalType": "uint256",
          "name": "give",
          "type": "uint256"
        },
        {
          "internalType": "uint256",
          "name": "take",
          "type": "uint256"
        },
        {
          "internalType": "uint256",
          "name": "rate",
          "type": "uint256"
        },
        {
          "internalType": "address payable",
          "name": "offerer",
          "type": "address"
        },
        {
          "internalType": "address payable",
          "name": "taker",
          "type": "address"
        },
        {
          "internalType": "bool",
          "name": "isCompleted",
          "type": "bool"
        }
      ],
      "payable": false,
      "stateMutability": "view",
      "type": "function"
    },
    {
      "constant": false,
      "inputs": [
        {
          "internalType": "uint256",
          "name": "_rate",
          "type": "uint256"
        }
      ],
      "name": "createTrade",
      "outputs": [],
      "payable": true,
      "stateMutability": "payable",
      "type": "function"
    },
    {
      "constant": false,
      "inputs": [
        {
          "internalType": "uint256",
          "name": "index",
          "type": "uint256"
        }
      ],
      "name": "cancelTrade",
      "outputs": [],
      "payable": true,
      "stateMutability": "payable",
      "type": "function"
    },
    {
      "constant": false,
      "inputs": [
        {
          "internalType": "uint256",
          "name": "index",
          "type": "uint256"
        }
      ],
      "name": "makeTrade",
      "outputs": [],
      "payable": true,
      "stateMutability": "payable",
      "type": "function"
    },
    {
      "constant": true,
      "inputs": [],
      "name": "getTradeNum",
      "outputs": [
        {
          "internalType": "uint256",
          "name": "",
          "type": "uint256"
        }
      ],
      "payable": false,
      "stateMutability": "view",
      "type": "function"
    },
    {
      "constant": true,
      "inputs": [
        {
          "internalType": "uint256",
          "name": "index",
          "type": "uint256"
        }
      ],
      "name": "getTradeDetail",
      "outputs": [
        {
          "internalType": "address",
          "name": "",
          "type": "address"
        },
        {
          "internalType": "uint256",
          "name": "",
          "type": "uint256"
        },
        {
          "internalType": "uint256",
          "name": "",
          "type": "uint256"
        },
        {
          "internalType": "uint256",
          "name": "",
          "type": "uint256"
        },
        {
          "internalType": "bool",
          "name": "",
          "type": "bool"
        }
      ],
      "payable": false,
      "stateMutability": "view",
      "type": "function"
    }
  ],
  "bytecode": "0x608060405234801561001057600080fd5b5061085b806100206000396000f3fe6080604052600436106100555760003560e01c806309ec6cc71461005a5780631e6c598e1461008857806357c7a50714610156578063abe4d122146101f1578063cf2850311461021f578063dc99f3261461024d575b600080fd5b6100866004803603602081101561007057600080fd5b8101908080359060200190929190505050610278565b005b34801561009457600080fd5b506100c1600480360360208110156100ab57600080fd5b81019080803590602001909291905050506103b4565b604051808781526020018681526020018581526020018473ffffffffffffffffffffffffffffffffffffffff1673ffffffffffffffffffffffffffffffffffffffff1681526020018373ffffffffffffffffffffffffffffffffffffffff1673ffffffffffffffffffffffffffffffffffffffff16815260200182151515158152602001965050505050505060405180910390f35b34801561016257600080fd5b5061018f6004803603602081101561017957600080fd5b810190808035906020019092919050505061044a565b604051808673ffffffffffffffffffffffffffffffffffffffff1673ffffffffffffffffffffffffffffffffffffffff168152602001858152602001848152602001838152602001821515151581526020019550505050505060405180910390f35b61021d6004803603602081101561020757600080fd5b81019080803590602001909291905050506104cd565b005b61024b6004803603602081101561023557600080fd5b8101908080359060200190929190505050610658565b005b34801561025957600080fd5b506102626107b6565b6040518082815260200191505060405180910390f35b600015156000828154811061028957fe5b906000526020600020906005020160040160149054906101000a900460ff161515146102b457600080fd5b600081815481106102c157fe5b906000526020600020906005020160030160009054906101000a900473ffffffffffffffffffffffffffffffffffffffff1673ffffffffffffffffffffffffffffffffffffffff163373ffffffffffffffffffffffffffffffffffffffff161461032a57600080fd5b600080828154811061033857fe5b9060005260206000209060050201905060018160040160146101000a81548160ff0219169083151502179055503373ffffffffffffffffffffffffffffffffffffffff166108fc82600001549081150290604051600060405180830381858888f193505050501580156103af573d6000803e3d6000fd5b505050565b600081815481106103c157fe5b90600052602060002090600502016000915090508060000154908060010154908060020154908060030160009054906101000a900473ffffffffffffffffffffffffffffffffffffffff16908060040160009054906101000a900473ffffffffffffffffffffffffffffffffffffffff16908060040160149054906101000a900460ff16905086565b6000806000806000806000878154811061046057fe5b906000526020600020906005020190508060030160009054906101000a900473ffffffffffffffffffffffffffffffffffffffff168160000154826002015483600101548460040160149054906101000a900460ff16849450955095509550955095505091939590929450565b6000341180156104dd5750600081115b6104e657600080fd5b6104ee6107c2565b348160000181815250508181604001818152505081340281602001818152505033816060019073ffffffffffffffffffffffffffffffffffffffff16908173ffffffffffffffffffffffffffffffffffffffff168152505060008160a00190151590811515815250506000819080600181540180825580915050906001820390600052602060002090600502016000909192909190915060008201518160000155602082015181600101556040820151816002015560608201518160030160006101000a81548173ffffffffffffffffffffffffffffffffffffffff021916908373ffffffffffffffffffffffffffffffffffffffff16021790555060808201518160040160006101000a81548173ffffffffffffffffffffffffffffffffffffffff021916908373ffffffffffffffffffffffffffffffffffffffff16021790555060a08201518160040160146101000a81548160ff0219169083151502179055505050505050565b600015156000828154811061066957fe5b906000526020600020906005020160040160149054906101000a900460ff1615151480156106b4575034600082815481106106a057fe5b906000526020600020906005020160010154145b6106bd57600080fd5b60008082815481106106cb57fe5b906000526020600020906005020190508060030160009054906101000a900473ffffffffffffffffffffffffffffffffffffffff1673ffffffffffffffffffffffffffffffffffffffff166108fc82600101549081150290604051600060405180830381858888f19350505050158015610749573d6000803e3d6000fd5b503373ffffffffffffffffffffffffffffffffffffffff166108fc82600001549081150290604051600060405180830381858888f19350505050158015610794573d6000803e3d6000fd5b5060018160040160146101000a81548160ff0219169083151502179055505050565b60008080549050905090565b6040518060c00160405280600081526020016000815260200160008152602001600073ffffffffffffffffffffffffffffffffffffffff168152602001600073ffffffffffffffffffffffffffffffffffffffff168152602001600015158152509056fea265627a7a72315820dca4620a071de5ae49e7539d92a8e6dfcf04fb7644b38572dad6692f56adc32864736f6c63430005100032",
  "source": "// SPDX-License-Identifier: MIT\r\npragma solidity >=0.4.21 <0.8.0;\r\n\r\ncontract OTC {\r\n\r\n    struct Trade {\r\n        uint256 give;\r\n        uint256 take;\r\n        uint256 rate;\r\n        address payable offerer;\r\n        address payable taker;\r\n        bool isCompleted;\r\n    }\r\n\r\n    Trade[] public trades;\r\n\r\n    // constructor () public {\r\n\r\n    // }\r\n\r\n    function createTrade(uint256 _rate) public payable {\r\n        require(msg.value > 0 && _rate > 0);\r\n        Trade memory t;\r\n        t.give = msg.value;\r\n        t.rate = _rate;\r\n        t.take = msg.value * _rate;\r\n        t.offerer = msg.sender;\r\n        t.isCompleted = false;\r\n        trades.push(t);\r\n\r\n    }\r\n\r\n    function cancelTrade(uint256 index) public payable {\r\n        require(trades[index].isCompleted == false);\r\n        require(msg.sender == trades[index].offerer);\r\n        Trade storage trade = trades[index];\r\n        \r\n        trade.isCompleted = true;\r\n        msg.sender.transfer(trade.give);\r\n\r\n    }\r\n\r\n    function makeTrade(uint index) public payable {\r\n        require(trades[index].isCompleted == false && trades[index].take == msg.value);\r\n\r\n        Trade storage trade = trades[index];\r\n        trade.offerer.transfer(trade.take);\r\n        msg.sender.transfer(trade.give);\r\n\r\n        trade.isCompleted = true;\r\n\r\n    }\r\n\r\n    function getTradeNum() public view returns (uint) {\r\n        return trades.length;\r\n    }\r\n\r\n    function getTradeDetail(uint index) public view returns (address, uint256, uint256, uint256, bool) {\r\n        Trade storage trade = trades[index];\r\n\r\n        return (trade.offerer, trade.give, trade.rate, trade.take, trade.isCompleted);\r\n    }\r\n\r\n\r\n}",
  "sourcePath": "D:/nickypangers/App/descrow/contracts/OTC.sol",
  "compiler": {
    "name": "solc",
    "version": "0.5.16+commit.9c3226ce.Emscripten.clang"
  },
  "schemaVersion": "3.3.1",
  "updatedAt": "2020-11-26T15:37:47.614Z",
  "networkType": "ethereum",
  "devdoc": {
    "methods": {}
  },
  "userdoc": {
    "methods": {}
  }
}